{
  "contractName": "PriceConverter",
  "abi": [
    {
      "inputs": [
        {
          "internalType": "address",
          "name": "_base",
          "type": "address"
        },
        {
          "internalType": "address",
          "name": "_quote",
          "type": "address"
        },
        {
          "internalType": "uint8",
          "name": "_decimals",
          "type": "uint8"
        }
      ],
      "name": "getDerivedPrice",
      "outputs": [
        {
          "internalType": "int256",
          "name": "",
          "type": "int256"
        }
      ],
      "stateMutability": "view",
      "type": "function"
    }
  ],
  "bytecode": "0x608060405234801561001057600080fd5b5061066c806100206000396000f3fe608060405234801561001057600080fd5b506004361061002b5760003560e01c80639743665514610030575b600080fd5b61004361003e36600461037c565b610055565b60405190815260200160405180910390f35b600060ff82161580159061006d5750601260ff831611155b6100b15760405162461bcd60e51b8152602060048201526011602482015270496e76616c6964205f646563696d616c7360781b604482015260640160405180910390fd5b60006100c160ff8416600a6104bf565b90506000856001600160a01b031663feaf968c6040518163ffffffff1660e01b815260040160a06040518083038186803b1580156100fe57600080fd5b505afa158015610112573d6000803e3d6000fd5b505050506040513d601f19601f8201168201806040525081019061013691906104e5565b5050509150506000866001600160a01b031663313ce5676040518163ffffffff1660e01b815260040160206040518083038186803b15801561017757600080fd5b505afa15801561018b573d6000803e3d6000fd5b505050506040513d601f19601f820116820180604052508101906101af9190610535565b90506101bc8282876102dd565b91506000866001600160a01b031663feaf968c6040518163ffffffff1660e01b815260040160a06040518083038186803b1580156101f957600080fd5b505afa15801561020d573d6000803e3d6000fd5b505050506040513d601f19601f8201168201806040525081019061023191906104e5565b5050509150506000876001600160a01b031663313ce5676040518163ffffffff1660e01b815260040160206040518083038186803b15801561027257600080fd5b505afa158015610286573d6000803e3d6000fd5b505050506040513d601f19601f820116820180604052508101906102aa9190610535565b90506102b78282896102dd565b9150816102c48686610552565b6102ce91906105d7565b955050505050505b9392505050565b60008160ff168360ff161015610316576102f78383610613565b6103059060ff16600a6104bf565b61030f9085610552565b90506102d6565b8160ff168360ff1611156103465761032e8284610613565b61033c9060ff16600a6104bf565b61030f90856105d7565b509192915050565b80356001600160a01b038116811461036557600080fd5b919050565b60ff8116811461037957600080fd5b50565b60008060006060848603121561039157600080fd5b61039a8461034e565b92506103a86020850161034e565b915060408401356103b88161036a565b809150509250925092565b634e487b7160e01b600052601160045260246000fd5b600181815b808511156104145781600019048211156103fa576103fa6103c3565b8085161561040757918102915b93841c93908002906103de565b509250929050565b60008261042b575060016104b9565b81610438575060006104b9565b816001811461044e576002811461045857610474565b60019150506104b9565b60ff841115610469576104696103c3565b50506001821b6104b9565b5060208310610133831016604e8410600b8410161715610497575081810a6104b9565b6104a183836103d9565b80600019048211156104b5576104b56103c3565b0290505b92915050565b60006102d6838361041c565b805169ffffffffffffffffffff8116811461036557600080fd5b600080600080600060a086880312156104fd57600080fd5b610506866104cb565b9450602086015193506040860151925060608601519150610529608087016104cb565b90509295509295909350565b60006020828403121561054757600080fd5b81516102d68161036a565b60006001600160ff1b0381841382841380821686840486111615610578576105786103c3565b600160ff1b6000871282811687830589121615610597576105976103c3565b600087129250878205871284841616156105b3576105b36103c3565b878505871281841616156105c9576105c96103c3565b505050929093029392505050565b6000826105f457634e487b7160e01b600052601260045260246000fd5b600160ff1b82146000198414161561060e5761060e6103c3565b500590565b600060ff821660ff84168082101561062d5761062d6103c3565b9003939250505056fea264697066735822122057b228c28aa6e52a403bed7c87b6a30c01ec05b84a90430cc3d3cf1b449e577564736f6c63430008090033",
  "immutableReferences": {},
  "source": "// SPDX-License-Identifier: MIT\npragma solidity >=0.4.17 <0.9.0;\n\nimport \"@chainlink/contracts/src/v0.8/interfaces/AggregatorV3Interface.sol\";\n\ncontract PriceConverter {\n    function getDerivedPrice(\n        address _base,\n        address _quote,\n        uint8 _decimals\n    ) public view returns (int256) {\n        require(\n            _decimals > uint8(0) && _decimals <= uint8(18),\n            \"Invalid _decimals\"\n        );\n        int256 decimals = int256(10**uint256(_decimals));\n        (, int256 basePrice, , , ) = AggregatorV3Interface(_base)\n            .latestRoundData();\n        uint8 baseDecimals = AggregatorV3Interface(_base).decimals();\n        basePrice = scalePrice(basePrice, baseDecimals, _decimals);\n\n        (, int256 quotePrice, , , ) = AggregatorV3Interface(_quote)\n            .latestRoundData();\n        uint8 quoteDecimals = AggregatorV3Interface(_quote).decimals();\n        quotePrice = scalePrice(quotePrice, quoteDecimals, _decimals);\n\n        return (basePrice * decimals) / quotePrice;\n    }\n\n    function scalePrice(\n        int256 _price,\n        uint8 _priceDecimals,\n        uint8 _decimals\n    ) internal pure returns (int256) {\n        if (_priceDecimals < _decimals) {\n            return _price * int256(10**uint256(_decimals - _priceDecimals));\n        } else if (_priceDecimals > _decimals) {\n            return _price / int256(10**uint256(_priceDecimals - _decimals));\n        }\n        return _price;\n    }\n}\n",
  "sourcePath": "/home/yosephkurniasoenggoro/Documents/GitHub/moralis-betting-protocol/Truffle/contracts/chainlink/PriceConverter.sol",
  "compiler": {
    "name": "solc",
    "version": "0.8.9+commit.e5eed63a.Emscripten.clang"
  },
  "schemaVersion": "3.4.3",
  "updatedAt": "2021-11-21T14:38:43.067Z",
  "devdoc": {
    "kind": "dev",
    "methods": {},
    "version": 1
  },
  "userdoc": {
    "kind": "user",
    "methods": {},
    "version": 1
  }
}